:020000040800F2
:10000000A00F0020E1010008574B0008D937000875
:10001000554B0008C50B00087D6200080000000079
:10002000000000000000000000000000490100087E
:10003000690C0008000000008D010008154F000841
:10004000FB010008FB010008FB010008FB010008A0
:10005000FB010008FB010008FB010008FB01000890
:10006000FB010008FB010008FB010008190C000857
:10007000FB010008FB010008250C0008310C0008FA
:10008000FB010008FB010008FB010008FB01000860
:10009000FB010008FB010008FB010008890C0008B7
:1000A000FB010008BD4F0008FB010008FB01000830
:1000B000FB010008FB010008FB010008FB01000830
:1000C000FB010008FB010008FB010008FB01000820
:1000D000FB01000809620008FB010008FB010008A1
:1000E0006B0C0008FB010008FB010008FB01000885
:1000F000FB010008FB010008FB010008FB010008F0
:10010000FB010008FB010008FB010008FB010008DF
:10011000FB010008FB010008C94F0008FB010008B3
:10012000FB010008FB010008FB010008FB010008BF
:10013000DFF810D000F0E8FB00480047D96C000859
:10014000AFF30080A00F0020224B19680868B0E8C8
:10015000F00F80F30988BFF36F8F4FF0000080F33A
:1001600011884EF00D0E7047000000000648006830
:10017000006880F3088862B661B6BFF34F8FBFF3A3
:100180006F8F00DF00BF00BF08ED00E0EFF30980D4
:10019000BFF36F8F0F4B1A6820E9F00F106008B59E
:1001A0004FF0500080F31188BFF34F8FBFF36F8F74
:1001B00006F006FE4FF0000080F31188BDE808400D
:1001C00019680868B0E8F00F80F30988BFF36F8FF3
:1001D000704700BF30000020EFF30580704700003B
:1001E0000648804706480047FEE7FEE7FEE7FEE7D1
:1001F000FEE7FEE7FEE7FEE7FEE7FEE7B94F000891
:1002000031010008202A04DB203A21FA02F0002103
:10021000704721FA02F3D040C2F120029140084316
:1002200019467047D2B201E000F8012B491EFBD2FB
:1002300070470022F6E710B513460A4604461946F1
:10024000FFF7F0FF204610BD80EA010210B502F072
:100250000043400022D04A001FD0010E01EB126182
:10026000C0F35600C2F3560240F4000042F400020C
:10027000A0FB022000047F39140400D0401C50EA87
:10028000124001D44000491EC2B20C0604EBD0104B
:10029000401C4008802A02D003E0002010BD20F05E
:1002A0000100002900DA0020184310BD30B480EAB4
:1002B000010202F0004530F0004221F0004013D06E
:1002C00090B1C30DD40DC2F31601C0F31600E41AA9
:1002D00041F4000140F400027D34914201D3641CDA
:1002E00000E04900002C02DA30BC002070474FF4D7
:1002F00000000023914201D3891A034340084FEACA
:100300004101F7D151B1914202D14FF0004105E0D6
:1003100002D24FF0010101E06FF0010103EBC45084
:10032000284430BC00F09DB92DE9FE4F81EA03045A
:1003300004F0004421F0004100944FF0000B23F042
:10034000004350EA01045ED052EA03045BD0C3F3D9
:100350000A54C1F30A552C44A4F2F3340194A0FBCF
:100360000254C1F3130141F48011C3F3130343F4A6
:10037000801301FB024400FB034E840A970A44EAFF
:10038000815447EA8357A4FB076802958D0A05FB51
:1003900007854FEA932C04FB0C542705029D4FEA76
:1003A000065847EA1637B5EB08056EEB070C870EC3
:1003B000920E47EA811742EA8312A7FB0201B6EBCD
:1003C0000B0164EB00042B0D43EA0C335E1844EB85
:1003D0001C50DA465146E7FB0201C5F313044FEA0D
:1003E0000B3343EA14534FEA0432019C43EA0603F9
:1003F000A4F10C040294009CCDE900B400F077F95C
:1004000003B0BDE8F08F00200146F9E72DE9F04D7B
:1004100081EA030404F0004B21F0004514464FF03C
:10042000000A23F0004150EA050220D054EA0102FC
:100430001DD0C5F30A570246C5F31303C1F31300D9
:10044000C1F30A5640F4801543F48013A7EB060865
:10045000101BD64608F2FD3873EB050002D308F1F5
:10046000010801E092185B41B8F1000F03DA0020A7
:100470000146BDE8F08D00204FF480110646844609
:100480000EE0171B73EB050705D3121B63EB050387
:1004900006434CEA010C49084FEA300092185B41D0
:1004A00050EA0107EDD152EA030012D082EA0400BB
:1004B00083EA0501084305D0101BAB4106D2012297
:1004C000002306E000224FF0004302E06FF001023B
:1004D00053101AEB06004CEB085110EB0A0041EBED
:1004E0000B01BDE8F04D00F0F3B870B521F000430A
:1004F00003430CD0C1F30A550024D5EB040564EB8B
:100500000403D617AD1AB34102DB0020014670BDCB
:10051000201841EB025170BD96230022114600F0D5
:10052000A9B820F00040C10DC0F3160040F400004F
:100530007F2901DA00207047962903DCC1F196017A
:10054000C8407047963988407047C1F30A5210B5C9
:10055000C1F3130140F2FF3341F480119A4201DAF2
:10056000002010BD40F233439A42A2F2334203DC32
:100570005242FFF747FE10BD904010BD00F0004210
:1005800030F000400AD0C10D01F56071C0F31600D3
:1005900042EA0151C208400711437047002001465A
:1005A0007047000030B5041E71F1000404DB4FF009
:1005B0000044404264EB0101141E73F1000405DBAA
:1005C0001C464FF00043524263EB0403994208BFBC
:1005D000904230BD30B50B46014600202022012458
:1005E00009E021FA02F59D4205D303FA02F5491B01
:1005F00004FA02F52844151EA2F10102F1DC30BD17
:100600002DE9F05F0546002092469B468846064647
:10061000814640241BE02846414647462246FFF7D4
:10062000F1FD53465A46C01A914110D3114618465F
:10063000224600F07BF92D1A67EB01084F4622464F
:100640000120002100F072F917EB00094E41201E35
:10065000A4F10104DFDC484631462A464346BDE8A2
:10066000F09F0029A8BF7047401C490008BF20F038
:100670000100704710B4B0FA80FC00FA0CF050EAA8
:10068000010404BF10BC704749B1CCF1200421FA29
:1006900004F411FA0CF118BF012121430843A3EB24
:1006A0000C01CB1D4FEA00614FEA102042BF002031
:1006B00010BC704700EBC35010440029A4BF10BC0D
:1006C0007047401C490008BF20F0010010BC704773
:1006D00010B5141E73F1000408DA401C41F100014A
:1006E00092185B411A4301D120F0010010BD2DE9A1
:1006F000F04D92469B4611B1B1FA81F202E0B0FA98
:1007000080F22032904600F011F904460F4640EA8C
:100710000A0041EA0B0153465A46084313D01146DA
:1007200053EA010019D0C8F140025046FFF76AFDB4
:1007300005460E4650465946424600F0F7F8084333
:1007400005D0012004E020463946BDE8F08D0020A8
:10075000054346EAE0762C4337430A986305E40AEA
:10076000A0EB08000022FD0A44EA47540A3002D5F3
:1007700000200146E9E7010510196941DDE9084556
:1007800000196941BDE8F04DA2E72DE9FE4F804612
:1007900081EA0300C00F0C46009021F0004123F0D5
:1007A0000045B8EB0200A94105D2404621469046DB
:1007B0001C460B46024623F00040104347D0270D4D
:1007C000C7F30A00C3F30A510290401A019040286F
:1007D0006BDAC3F3130040F4801B0098924620B1FB
:1007E0000023D2EB030A63EB0B0B01985946C0F1CF
:1007F0004002504600F09AF806460D4650465946CB
:10080000019A00F0A2F810EB08006141002487EA89
:10081000115284EAE7731A4340D0009A62B3019AF6
:10082000012A4FEA075215DC001B61EB02014FF071
:10083000004202EA0752CDE90042001C41F5801156
:1008400032462B46FFF753FF03B0BDE8F08F40461A
:100850002146F9E7001B61EB0201001C41F5801302
:1008600000185B412018A2F5001747EB030140EA8E
:10087000D570B6196D4111E06D084FEA360645EAAC
:10088000C0754FEA0752001B61EB0201001C41F5E5
:10089000801149084FEA30000019514132462B4679
:1008A00003B0BDE8F04FFFF713BF009801224000EE
:1008B0000023D0EB020263EBE073009821464FEA7D
:1008C000E074B8EB000061EB0401E9E783F000435A
:1008D0005BE781F0004158E7C1F30A52C1F313010D
:1008E00040F2FF3341F480119A4202DA00200146BF
:1008F000704740F233439A42A2F2334202DC524242
:10090000FFF780BC00F012B8064C074D06E0E06827
:1009100040F0010394E8070098471034AC42F6D346
:10092000FFF70AFC7C9F00089C9F0008202A04DB3C
:10093000203A00FA02F1002070479140C2F12003F2
:1009400020FA03F3194390407047202A06DBCB17A7
:10095000203A41FA02F043EAE07306E041FA02F37A
:10096000D040C2F12002914008431946704770B54B
:10097000044620688168C943C9071BD1816821F0FA
:100980000101816001F0CAF905460EE001F0C6F9E7
:10099000401B022809D9A06A40F01000A062E06A5A
:1009A00040F00100E062012070BD20688068C04313
:1009B000C007EBD0002070BD10B50146486A826ABE
:1009C00012F0500F05D0006A026BBDE810400846D7
:1009D0001047816A41F40071816201688968C1F33E
:1009E000424107290CD1017B51B9816A21F4807100
:1009F0008162816AC90403D4816A41F00101816284
:100A000000F0B8FA10BD10B5406A816A41F04001AB
:100A10008162C16A41F00401C16200F0ADFA10BD0B
:100A200010B5406A00F0A7FA10BD0000F8B5044602
:100A30000026009620688168C943C9072AD08168CA
:100A400041F001018160144814490068B0FBF1F0E5
:100A5000009002E00098401E009000980028F9D114
:100A600001F05CF9054610E001F058F9401B02283E
:100A70000BD9A06A40F01000A062E06A40F00100CB
:100A8000E06284F824600120F8BD20688068C043DB
:100A9000C007E9D10020F8BD1000002040420F003F
:100AA0002DE9F8432C482D4F002581790A2902D9D8
:100AB00085712121B973DFF8A880D8F80010496A40
:100AC000DFF8949009B2A9F106090124B9F90420CC
:100AD000914200D08471B87B224E410640F2FF72F1
:100AE0000FD5328007232321D220009406F0B6F8D8
:100AF0002A46358007234821D220009406F0AEF81C
:100B000010E000060ED5328007234821D220009441
:100B100006F0A4F82A46358007232321D22000942A
:100B200006F09CF8B87B80060ED52A463580072350
:100B30004821D220009406F091F8009407233288CF
:100B40002321D22006F08AF8D8F80000406AA9F8DC
:100B50000400BDE8F88300001A000020C80300204C
:100B6000E00100202200002070B50C461546124915
:100B7000897800291ED01149B1FBF0F081B24FF005
:100B8000804081620DE000210D4802F059FB2846AB
:100B900000F0BAFE00210A4802F0EEFA284600F002
:100BA000B3FE641EA4B2EED2BDE87040002104483A
:100BB00002F046BB70BD00001A00002080FC0A0055
:100BC00050010020FEE700000E480178002917D0F0
:100BD00040787138062810D2DFE800F003050709D5
:100BE0000B0D04F03BB804F033B804F033B804F054
:100BF00033B804F030B804F02CB803A005F040BBC3
:100C000070470000A80700204552524F5220434D24
:100C100044200D0A00000000014800F0ABBC0000B9
:100C2000A0000020014800F0A5BC00003C0300200B
:100C3000014800F09FBC0000F802002030B590F899
:100C400040500124AC40C56B6C600468636043682D
:100C5000102B04D0036899600068C26030BD03683F
:100C60009A600068C16030BD704710B54FF4005005
:100C700000F030FF4FF4804000F02CFFBDE8104042
:100C80004FF4004000F026BF10B54FF4807000F024
:100C900021FFBDE810404FF4007000F01BBF70470B
:100CA0002DE9FF4F83B0054689469346AA460A20A0
:100CB00001904FF000084DE03049109A08EB081001
:100CC00011F810301278934240D101EB40000290AD
:100CD000417810984078814238D109F10F0083B2F1
:100CE00005F10F0082B24946284603F07BF8002642
:100CF000002402988719119890B12148A0F800B0FB
:100D0000B9788020E040014203D04946284602F0ED
:100D100085FF6D1CADB2A5EB0A00102827D00DE0B1
:100D2000B9788020E040014204D00BF0FF0003F0CE
:100D30003DFA03E00698C0B203F038FA641CE4B24E
:100D4000082CD8D3761CF6B2202ED1D308F1010896
:100D50001FFA88F801988045AED30A4800214388DD
:100D6000028807B00846BDE8F04F03F03BB855468F
:100D700009F101091FFA89F9E4E70000289E00083B
:100D80002200002098070020F8B5044600260096AF
:100D900094F82400012809D0012084F8240020467A
:100DA000FFF7E5FD0746380002D058E00220F8BD05
:100DB000A06A20F4885040F00200A062022001F0F6
:100DC0006BF829490968B1FBF0F04000009002E09F
:100DD0000098401E009000980028F9D12046FFF7A7
:100DE00025FE2068816841F00801816000F096FFCF
:100DF00005460EE000F092FF401B0A2809D9A06AC0
:100E000020F0020040F01000A06284F8246001206D
:100E1000F8BD206880680007ECD42068816841F044
:100E20000401816000F07AFF05460EE000F076FFD5
:100E3000401B0A2809D9A06A20F0020040F01000E7
:100E4000A06284F824600120F8BD20688068400713
:100E5000ECD4A06A20F0020040F00100A06284F807
:100E600024603846F8BD000010000020F8B50023CB
:100E70000025009590F82420012A12D0012280F844
:100E800024204A681F26072A0DD20468676B521E69
:100E900002EB82029640B7430E6896403743676381
:100EA0001AE00220F8BD0D2A0BD20468276BD21F6E
:100EB00002EB82029640B7430E68964037432763A1
:100EC0000AE00468E76A0D3A02EB82029640B743F3
:100ED0000E6896403743E7620A6807260A2A0BD352
:100EE0000468E7680A3A02EB42029640B7438E680C
:100EF00096403743E76009E00468276902EB420245
:100F00009640B7438E689640374327610A68102A97
:100F100001D0112A23D1144C0268A2421AD194683C
:100F200024021CD4946844F40004946009681029D5
:100F300015D10E490E4A0968B1FBF2F101EB8101AE
:100F40004900009102E00099491E00910099002992
:100F5000F9D104E0816A41F020018162012380F827
:100F600024501846F8BD0000002401401000002065
:100F700040420F0070477047704700002DE9F04174
:100F800004460025002C03D0A06A002618B108E012
:100F90000120BDE8F081E66284F82460204600F07C
:100FA0007FF82046FFF7E3FCA16AC90600D428B108
:100FB000A06A40F01000A0620120EAE7A16A21F4D3
:100FC000885141F00201A162324923688B4206D167
:100FD000E169B1F5402F03D14FF4002100E0E16950
:100FE000277B41EA470261680A43A1684FF4807C8D
:100FF000614508D0012906D0002194F81480B8F189
:10100000010F02D00AE06146F7E7C7B1A76A47F0CF
:101010002007A762E76A47F00107E7625F6827F4E5
:1010200069470F435F6021688B681B4F3B40134348
:101030008B60A168614509D0012907D009E0A76943
:101040007F1E41EA473141F40061E7E7218A491EEA
:101050000D052168CB6A23F470032B43CB62216812
:1010600089680E4B1940914207D1E662A16A21F0CE
:10107000020141F00101A1628BE7A06A20F00200A9
:1010800040F01000A062E06A40F00100E062012040
:101090007FE70000003C0140FDF7E1FFFE0E1FFF6F
:1010A00070B586B006460024029403940494059417
:1010B0002849306888424BD12749886940F400703C
:1010C0008861886900F400700190886940F0100020
:1010D0008861886900F010000190886940F0040080
:1010E0008861886900F004000190886940F0080078
:1010F0008861886900F008000190092002900325AA
:10110000039502A9154800F0F1FC87200290039591
:1011100002A9134800F0EAFC0295039502A91148C0
:1011200000F0E4FC114D104828606C60AC60802039
:10113000E86040002861800068612020A861EC61BF
:10114000284600F067FB08B1FFF7A9FD35626E6223
:1011500006B070BD002401400010024000100140A4
:1011600000080140000C014008000240A0000020DF
:101170002DE9F047044689469246DFF80081206851
:101180003F4F08F10406404501D0B84207D130680E
:1011900010F4702F03D001252846BDE8F08794F89D
:1011A000240001280BD0012084F824002046FFF7FA
:1011B0003DFC0546002125B184F82410ECE702200F
:1011C000EBE7A06A40F60162904340F48070A062B1
:1011D0002068B84218D1326812F4702F14D0A26A75
:1011E00042F48012A2623068400505D5A06A20F45E
:1011F000005040F48050A062A06AC00412D5E06A9A
:1012000020F00600E0620EE0A26A22F48012A262E0
:1012100040684005F0D5A06A20F4005040F48050AA
:10122000A062E9E7E16284F82410216A1548886227
:10123000216A1548C862216A1448086321686FF062
:10124000020008602068816841F480718160216833
:1012500053464C314A46206A00F01CFB20688168E6
:10126000C1F34241072904D0816841F480118160B3
:1012700092E7816841F4A00181608DE7002401407C
:1012800000280140B9090008210A0008070A0008DF
:1012900070B54379012B20D00126467102230371DA
:1012A00003681D6802F0100240F6FE749440A543E6
:1012B000D1E900410C4394402C431C6003681C6836
:1012C000C02191408C431C60026813688B431360FB
:1012D000067100214171002070BD022070BD70B503
:1012E0000446002C03D02079002510B105E0012030
:1012F00070BD6571204600F007F80220207125615D
:1013000001202071002070BD00B585B00021019141
:1013100002910391049100680E49884218D10E4849
:10132000C16941F00051C161C16901F000510091F2
:10133000816941F004018161806900F0040000903E
:10134000302001900320029001A9044800F0CEFB58
:1013500005B000BD007400400010024000080140CC
:1013600018B50468009400680029104405D01430B2
:10137000009000980360002018BD08300090F8E746
:1013800070B54279012A1DD00126344646710222E9
:10139000027103681D6801F01002944025431D602E
:1013A00091B101680B6803F470143C2393409C4294
:1013B00003D14A6842F002024A600671002141717D
:1013C000002070BD022070BD01680A68C2F383026C
:1013D0000F2AF2D14A6842F001024A60EDE710B5E7
:1013E00090F821100022022905D00421816380F8A1
:1013F0002020012010BD01680B6823F00E030B6054
:1014000001680B6823F001030B6090F84030C46B57
:10141000012101FA03F3636080F8211080F8202095
:10142000104610BD2DE9F05F002590F8211002292B
:1014300003D004218163012595E001680A6822F048
:101440000E020A6001680A6822F001020A60474E33
:10145000464FB215DFF814C1DFF81081DFF80C91A8
:10146000DFF808A1DFF804B10168783F1301140226
:10147000ACF1640CA8F15008A9F13C09AAF1280AC2
:10148000ABF1140B4FF4801EB1422FD9B94201D1F8
:10149000012227E0614501D1102223E0414521D0FE
:1014A000494501D11A461DE0514501D1224619E0B6
:1014B000594501D1724615E02D4EB14201D10122AC
:1014C00010E02B4E1436B14201D110220AE0284E12
:1014D0002836B14206D0264A3C32914201D11A4602
:1014E00000E022462249091F0A6033E0B94201D1D7
:1014F00001222CE0614501D1102228E0414526D08F
:10150000494501D11A4622E0514501D122461EE04B
:10151000594501D172461AE0B14202D14FF08072B2
:1015200015E0134EB14201D1012210E0104E1436E5
:10153000B14201D110220AE00D4E2836B14206D048
:101540000B4A3C32914201D11A4600E0224607493B
:1015500080394A60012180F82110002180F8201094
:10156000416B01B188472846BDE8F09F80000240EA
:10157000080402402DE9F05FC16B0A6801680B683E
:10158000046C4FF0040E0EFA04FE9A4D9A4E9B4FD7
:10159000DFF86CC2DFF86C82DFF86C92DFF86CA2C7
:1015A000DFF86CB21EEA020F7BD05FEA437E78D58B
:1015B0000A68920603D40A6822F004020A60DFF87F
:1015C00048E24FF4806201680EF1140E1301140218
:1015D00071452DD9A94201D1042225E0B14201D1A2
:1015E000402221E0B9421FD0614501D11A461BE0DB
:1015F000414501D1224617E0494502D14FF480020E
:1016000012E0514501D104220EE0594501D140229A
:101610000AE07F4D1435A94206D07D4A2832914216
:1016200001D11A4600E022467849091F0A6032E0DB
:10163000A94201D104222BE0B14201D1402227E08E
:10164000B94225D0614501D11A4621E0414501D179
:1016500022461DE0494502D14FF4800218E0714551
:1016600002D14FF0806213E0514501D104220FE016
:10167000594501D140220BE0654D1435A94207D0F0
:10168000634A2832914202D11A4601E009E022461B
:10169000584908394A60C16A00296FD0BDE8F05F37
:1016A00008474FF0020E0EFA04FE1EEA020F74D035
:1016B0005FEA837E7FD50A68920606D40A6822F024
:1016C0000A020A60012180F82110DFF83CE14FF4A2
:1016D000007201680EF1140E1301140271452DD928
:1016E000A94201D1022225E0B14201D1202221E00C
:1016F000B9421FD0614501D11A461BE0414501D1D5
:10170000224617E0494502D14FF4001212E051453C
:1017100001D102220EE0594501D120220AE03C4DC0
:101720001435A94206D03A4A2832914201D11A46CC
:1017300000E022463549091F0A6033E0A94201D181
:1017400002222CE0B14201D1202228E0B94226D069
:10175000614501D11A4622E0414501D122461EE0F1
:10176000494502D14FF4001219E0714502D14FF002
:10177000007214E0514502D1022210E038E05945D0
:1017800001D120220BE0224D1435A94207D0204A76
:101790002832914202D11A4601E00CE02246154956
:1017A00008394A60002180F82010816A00291FD082
:1017B000BDE8F05F08470825A540154218D01A0774
:1017C00016D50A6822F00E020A6090F84020C36B1A
:1017D000012101FA02F25A60816380F82110002190
:1017E00080F82010016B002902D0BDE8F05F0847A7
:1017F000BDE8F09F080002401C000240300002409B
:1018000044000240580002406C00024008040240BC
:101810001C04024030B500280DD01B4B0168142277
:1018200099420AD2194B0B44B3FBF2F292000264C4
:10183000174AC2630BE0012030BD134B5B420B44DF
:10184000B3FBF2F2920002640F4A083AC26302222A
:10185000001D42770A6843F6F0739A43D0E90034DA
:101860002343D0E902452C432343046923434469BD
:1018700023438469234313430B6000214163012206
:1018800042770177002030BD08040240F8FFFDBF19
:101890000000024070B50446002594F8200001289D
:1018A0000CD0012084F8200094F821600020012E43
:1018B00006D084F820000225284670BD022070BDA5
:1018C000022684F82160A0632068066826F00106DD
:1018D00006602046FFF7B2F9E06A28B12068016887
:1018E00041F00E01016009E02068016821F0040167
:1018F00001602068016841F00A0101602068016808
:1019000041F001010160D7E770B5044600F006FA26
:101910000546601C02D004480078044400F0FEF93B
:10192000401BA042FAD370BD040000202DE9F04115
:10193000DFF89081012688F80660F103624A634D62
:10194000884211D1104600F0DBF900280AD1A87BAB
:10195000810907D088F8066000F00F0100F0F00060
:101960000844A873BDE8F0814FF40077584B4FF658
:10197000FF74B84223D10020401C80B2A042FBD3A8
:101980001E463946304600F0BBF90028EAD1002255
:10199000521C92B2A242FBD33946304600F0B0F955
:1019A0000028DFD1A97B01F00F00032801D9012015
:1019B00000E0401C01F0F0010844A873D2E74FF4A6
:1019C0000057B84236D10020401C80B2A042FBD361
:1019D00090463946404600F093F90028C2D10022D3
:1019E000521C92B2A242FBD33946404600F088F91D
:1019F0000028B7D1A87B33498206A1F1060103D59F
:101A00000E7000F0DF00A8730878012809D00228C2
:101A1000A8D1A87B00F03F0040F08000A8730E70B2
:101A2000A0E7A87B00F03F0040F04000A873022030
:101A3000087097E74FF48046B04223D10020401C45
:101A400080B2A042FBD317463146384600F058F921
:101A5000002887D10022521C92B2A242FBD3314609
:101A6000384600F04DF90028A8D1A97B01F00F00FD
:101A7000022801D2042000E0401E01F0F0010844D9
:101A8000A8736FE74FF48071884297D10020401C03
:101A900080B2A042FBD3184600F032F900288DD165
:101AA00098F8000040F0800088F80000C10704D0DA
:101AB00000F0FE0088F8000054E740F0010088F8CC
:101AC00000004FE71A00002000100140C80300206A
:101AD000000C014010B504490A68024202D00860B7
:101AE000FFF724FF10BD0000140401402DE9F84F5A
:101AF00000240023DFF8E0914FF00F0809F1040AF9
:101B00000AF1040B0BF1040EDFE00127A7403A4075
:101B1000BA4275D1DFF8C4C14D68A5EB0C06654526
:101B20002BD00DDC032D34D005DC35B3012D19D0BD
:101B3000022D2FD11BE0112D16D0122D2AD119E024
:101B4000B6F5881F19D006DCB6F5803F15D0B6F57E
:101B5000801F1FD111E0B6F5001F0ED0B6F5041F8F
:101B600018D10AE0CB6815E0CB681B1D12E0CB68EA
:101B700008330FE0CB680C330CE08B6823B1012BEA
:101B800004D00823476105E0042303E0082307612C
:101B900000E00023FF2A01D8054601E000F104051A
:101BA00002D84FEA840603E0A4F108064FEA86064D
:101BB0002F6808FA06FC27EA0C0703FA06F647EA3C
:101BC00006072F604D68ED007ED5454DAE6946F0A5
:101BD0000106AE61AD6905F001050095414D24F0A7
:101BE00003067719BE68A5072D0F08FA05FC26EA3B
:101BF0000C06DFF8F4C0604503D14FF0000C25E07F
:101C000062E0DFF8E8C0604502D14FF0010C1DE052
:101C1000DFF8DCC0604502D14FF0020C16E0DFF8BF
:101C2000D4C0604502D14FF0030C0FE0DFF8C8C00C
:101C3000604502D14FF0040C08E0DFF8C0C06045F9
:101C400002D14FF0050C01E04FF0060C0CFA05FC38
:101C50004CEA060CC7F808C04D68ED0305D5D9F865
:101C600000501543C9F8005004E0D9F800509543DE
:101C7000C9F800504D68AD0305D5DAF8005015439A
:101C8000CAF8005004E0DAF800509543CAF8005052
:101C90004D68ED0205D5DBF800501543CBF8005038
:101CA00004E0DBF800509543CBF800504D68AD02DE
:101CB00005D5DEF800501543CEF8005004E0DEF8FC
:101CC00000509543CEF80050641C0A6832FA04F5BF
:101CD0007FF41BAFBDE8F88F000401400000111035
:101CE000001002400000014000080140000C0140CB
:101CF000001001400014014000180140001C014088
:101D00008068084201D00120704700207047002AF7
:101D100001D0016170470904016170470148806882
:101D200070470000040000200248816802781144D6
:101D3000816070470400002010B50748016841F039
:101D400010010160032000F095F8002000F006F873
:101D500000F03EF8002010BD0020024000B587B022
:101D600001460022192000F065F8192000F054F80F
:101D70001348816941F400618161806900F4006069
:101D8000009001A902A800F02FFA00F061FA0D49B5
:101D9000B0FBF1F1491E0D480B4A026040F2E732F8
:101DA000C260416000210161816000F0F5FD10B169
:101DB000012007B000BD054800F04AFEF9E7000029
:101DC0000010024040420F00002C01408003002020
:101DD00008B50F48816941F001018161816901F015
:101DE00001010091C16941F08051C161C06900F0F9
:101DF0008050009000220F21901E00F01BF8054932
:101E0000486820F0E06040F00070486008BD0000C5
:101E10000010024000000140002809DB00F01F0212
:101E2000012191404009800000F1E020C0F800113C
:101E300070470000F0B40D460D4B1B68C3F302233E
:101E4000C3F10704042C00D90424191D072901D269
:101E5000002300E0DB1E012606FA04F1491E29409A
:101E600099409E40761E16403143F0BC04F02CBAD7
:101E70000CED00E000F00701054A10684FF6FF0383
:101E8000184040EA012003490843106070470000F1
:101E90000CED00E00000FA0510B586B0014632A056
:101EA00090E81C00C068CDE903340292059032A08E
:101EB000006801900020314C042931D00EDC01294A
:101EC00038D0022908D100F0C3F96168C1F381312B
:101ED000491C4900B0FBF1F006B010BD082924D020
:101EE0001029F9D161682268D201F5D502A8C1F3A1
:101EF0008342805CC90309D5616801AAC1F34041EE
:101F0000515C1F4AB2FBF1F1484301E01D494843CF
:101F100061684902E0D440000321B0FBF1F0DBE747
:101F200006B0BDE8104000F0A3B906B0BDE810400F
:101F300000F09EB9216AC1F30122012A03D1890769
:101F400001D5D003C8E7022A05D1616A890702D505
:101F500049F64040C0E7032ABED121688903BBD5BA
:101F60004FF22440B8E70000020304050607080901
:101F70000A0B0C0D0E0F10100102000000100240A1
:101F800000127A0000093D002DE9F8430446DFF80D
:101F9000F8802078C0075FD00027D8F81C00C00068
:101FA0000BD4D8F81C0040F08050C8F81C00D8F8BA
:101FB0001C0000F0805000900127344D2868C005B7
:101FC00012D4286840F480702860FFF7A7FE064608
:101FD00007E0FFF7A3FE801B642802D90320BDE8B9
:101FE000F8832868C005F4D5D8F8200000F44070C4
:101FF00010B3A18801F4407181421DD0D8F82000AF
:1020000020F44070224901220A6000220A60C8F8C8
:102010002000C00710D0FFF781FE054641F2883648
:1020200006E0FFF77BFE401BB04201D90320D6E754
:10203000D8F820008007F4D5D8F82000616820F493
:1020400040700843C8F82000012F05D1D8F81C00C3
:1020500020F08050C8F81C002078800707D5D8F8F9
:102060000400A16820F440400843C8F80400207828
:10207000C00607D5D8F80400616920F48000084341
:10208000C8F804000020AAE70010024000700040D9
:10209000400442422DE9F04704460D46002C17D07B
:1020A000DFF83081D8F8000000F00700A84211D214
:1020B000D8F8000020F007002843C8F80000D8F83E
:1020C000000000F00700A84204D00120BDE8F0871E
:1020D0000120FBE72068404E810712D5400703D559
:1020E000706840F4E06070602078000703D5706885
:1020F00040F4605070607068A16820F0F000084300
:1021000070602078C0072CD06068012806D00228B3
:1021100009D0316889070BD40120D7E731688903DA
:1021200006D40120D2E73168890101D40120CDE72E
:10213000716821F0030101437160FFF7EFFD07466D
:1021400041F2883906E0FFF7E9FDC01B484501D997
:102150000320BBE77068616800F00C00B0EB810FF2
:10216000F1D1D8F8000000F00700A8420ED9D8F845
:10217000000020F007002843C8F80000D8F800004D
:1021800000F00700A84201D001209FE72078400717
:1021900005D57068E16820F4E0600843706020783D
:1021A000000706D57068216920F4605040EAC1003C
:1021B000706000F05DF87168084AC1F30311515C6A
:1021C000C8400749086007480068FFF7C7FD0020BE
:1021D0007CE700000020024000100240EC6E000886
:1021E00010000020080000200F2202600B4A5368F4
:1021F00003F003034360536803F0F0038360536804
:1022000003F4E063C360526802F46052D2080261D2
:102210000348006800F007000860704700100240A3
:1022200000200240014800687047000010000020B4
:1022300000B5FFF7F7FF04494968044AC1F30221DA
:10224000515CC84000BD000000100240FC6E000858
:1022500000B5FFF7E7FF04494968044AC1F3C2210A
:10226000515CC84000BD000000100240FC6E000838
:1022700085B014A090E80E00C068CDE9022301915A
:10228000049014A000680090134B5968134801F0A3
:102290000C02042A10D0082A0ED101A8C1F38342EF
:1022A000805CC9030AD55968C1F340411DF801108B
:1022B0000A4A5043B0FBF1F005B070470849484363
:1022C000FAE7000002030405060708090A0B0C0DD3
:1022D0000E0F1010010200000010024000127A00E0
:1022E00000093D002DE9F84F0446002C0ED020785F
:1022F000D94DC0075ED06868C0F3810001280BD0BB
:102300006868C0F38100022803D00CE00120BDE81A
:10231000F88F6868C00306D5286880034AD56068CE
:10232000A8BB0120F3E76068B0F5803F11D0A8B1E9
:10233000B0F5A02F1BD0286820F4803028602868D2
:1023400020F480202860606830B3FFF7E7FC064681
:102350001EE0286840F480302860F4E7286820F404
:1023600080302860286820F480202860EBE7286807
:1023700040F480202860286840F480302860E2E73C
:10238000FFF7CCFC801B642802D90320BFE711E0D3
:1023900028688003F4D50DE0FFF7C0FC064606E090
:1023A000FFF7BCFC801B642801D90320AFE7286835
:1023B0008003F5D42078DFF8A48280074FF0010A6B
:1023C0004FF0000945D5686810F00C0F07D0686819
:1023D000C0F38100022812D16868C0030FD42868B6
:1023E000800704D52069012801D001208FE72868E3
:1023F000616920F0F80040EAC100286029E0206906
:10240000B8B1C8F800A0FFF789FC064606E0FFF760
:1024100085FC801B022801D9032078E72868800703
:10242000F5D52868616920F0F80040EAC10028600D
:102430000FE0C8F80090FFF771FC064606E0FFF7D2
:102440006DFC801B022801D9032060E72868800703
:10245000F5D42078000726D58148A16999B1C0F844
:1024600000A0FFF75BFC064606E0FFF757FC801B69
:10247000022801D903204AE7686A8007F5D50120C0
:1024800002F06AFB0FE0C0F80090FFF747FC064639
:1024900006E0FFF743FC801B022801D9032036E742
:1024A000686A8007F5D42078400773D50026E8696C
:1024B000C00008D4E86940F08050E861E86900F0A5
:1024C000805000900126DFF89CB1DBF80000C005C9
:1024D00014D4DBF8000040F48070CBF80000FFF764
:1024E0001DFC074606E0FFF719FCC01B642801D954
:1024F00003200CE7DBF80000C005F4D5E0680128F4
:1025000012D0B0B105281DD0286A20F00100286241
:10251000286A20F004002862E06841F2883B28B372
:10252000FFF7FCFB07461DE0286A40F00100286227
:10253000F2E7286A20F001002862286A20F00400EF
:102540002862E9E7286A40F004002862286A40F01F
:1025500001002862E0E7FFF7E1FBC01B584501D905
:102560000320D4E6286A8007F5D50DE0FFF7D6FBF7
:10257000074606E0FFF7D2FBC01B584501D90320F0
:10258000C5E6286A8007F5D4012E03D1E86920F05A
:102590008050E861E069A0B36968C1F38101022954
:1025A00046D0022805D0C8F86090FFF7B7FB044674
:1025B0003AE0C8F86090FFF7B1FB064606E0FFF787
:1025C000ADFB801B022801D90320A0E6286880010A
:1025D000F5D4206AB0F5803F05D16868A16820F481
:1025E000003008436860D4E908010843696821F4B1
:1025F000741108436860C8F860A0FFF78FFB0446B9
:1026000007E026E0FFF78AFB001B022801D9032020
:102610007DE628688001F5D51BE0FFF77FFB001BF6
:10262000022801D9032072E628688001F5D410E061
:1026300001280CD06868226A00F48031914204D1EC
:10264000616A00F47010884203D001205FE6012027
:102650005DE600205BE60000001002400000424200
:10266000800442420070004070B50446002C09D03E
:10267000606A002540B125616561A56294F851004A
:1026800040B10CE0012070BD6068B0F5827FF4D0ED
:10269000E561F2E784F85050204600F03FF8022050
:1026A00084F851002068016821F040010160A08891
:1026B000218900F4827001F404410843A18901F4E6
:1026C00000610843217C01F002010843217D01F0F3
:1026D00001010843218B01F400710843217F01F0BF
:1026E0003801084394F8201001F080010843218D3F
:1026F00001F40051084321680860A069042101EA3F
:102700001040216848602068C16921F40061C161FE
:102710006565012084F85100002070BD00B585B0CA
:1027200000210191029103910491006813498842AC
:1027300021D11348816941F480518161816901F49B
:1027400080510091816941F008018161806900F048
:10275000080000902820019002200290032004909D
:1027600001A90848FFF7C2F90749486840F0E0604E
:1027700040F00100486005B000BD0000003001409D
:1027800000100240000C0140000001402DE9F84F0C
:1027900004468B4692461D46002694F850000128B8
:1027A0000DD04FF0010984F85090FFF7B7FA0746B3
:1027B00094F85100B046012804D00226A5E002207A
:1027C000BDE8F88FBBF1000F1CD05FEA0A0019D0FA
:1027D000032084F85100C4F85480C4F830B0A4F841
:1027E00034A0A4F836A0C4F83880A4F83C80A4F83B
:1027F0003E80C4F84480C4F84080A068B0F5004F23
:1028000002D00BE0012680E02068016821F0400141
:1028100001602068016841F480410160206801681E
:10282000490603D4016841F040010160E068B0F559
:10283000006F05D0606878B3BAF1010F2DD04DE07C
:10284000606810B1BAF1010F20D1206B21680088B7
:10285000C860206B801C2063E08E401EE08615E07F
:1028600020688168890709D5216B0988C160206BC0
:10287000801C2063E08E401EE08607E0FFF74EFAE2
:10288000C01BA84201D3681C04D11DB1E08E0028F2
:10289000E6D126E0032638E0FFE7206B21680078C8
:1028A0000873206B401C2063E08E401EE08615E01C
:1028B00020688168890709D5216B09780173206B2D
:1028C000401C2063E08E401EE08607E0FFF726FAFA
:1028D000C01BA84201D3681C0ED16DB1E08E002848
:1028E000E6D13A462946204602F0A4FA08B1202053
:1028F0006065A06810B105E0032606E02068C168A5
:1029000080680090606D00B1012684F8519084F8D1
:102910005080304654E770477047000070B590F81B
:102920003C20012A2BD0012680F83C60022280F84E
:102930003D2002685368956823F070040B682343B8
:102940005360104B02689A420ED00F4B9A420BD044
:10295000B2F1804F08D00D4B9A4205D00C4B9A42F1
:1029600002D00C4B9A4204D125F0800349681943E8
:1029700091603C30467000210170002070BD022043
:1029800070BD0000002C01400034014000040040F4
:1029900000080040000C004010B50446002C03D095
:1029A00094F83D0010B107E0012010BD002084F82C
:1029B0003C00204600F016F8022084F83D00211D5E
:1029C000206802F01DFB01203D3460726070A07031
:1029D000E07020716071A071E071207220700020A1
:1029E00010BD000008B500681649B0F1804F0BD04B
:1029F000154A904211D1C86940F00200C861C86907
:102A000000F00200009008BDC86940F00100C861F4
:102A1000C86900F00100009008BD0C4A9042FBD14B
:102A2000C86940F01000C861C86900F0100000904B
:102A3000002205213620FFF7FDF9BDE808403620C9
:102A4000FFF7EAB900100240000400400010004007
:102A500090F83D10012901D001207047022180F833
:102A60003D100168CA6842F00102CA60006811495D
:102A700088420ED0104988420BD0B0F1804F08D068
:102A80000E49884205D00E49884202D00D4988423D
:102A900009D1816801F00701062908D0016841F0D9
:102AA0000101016003E0016841F0010101600020C3
:102AB00070470000002C0140003401400004004039
:102AC00000080040000C004070B5044694F83C003B
:102AD000012817D0012584F83C50022084F83D00DD
:102AE0002068826822F0770222F47F4282600868C0
:102AF000502831D00DDC20284DD005DCB0B3102893
:102B00004ED148E0022070BD302844D0402847D143
:102B100037E060282BD0702806D0B0F5805F3FD01A
:102B2000B0F5005F3CD10BE0CB68D1E90121206812
:102B300002F0BBFA2068816841F0770181602FE0E4
:102B4000CB68D1E90121206802F0AFFA20688168E2
:102B500041F48041816023E0CA684968206802F03E
:102B600087FB5021206802F0AAFA19E013E0CA6836
:102B70004968206802F08DFB6021206802F09FFA0E
:102B80000EE0CA684968206802F072FB40212068A4
:102B900002F095FA04E022680146104602F08FFA2E
:102BA0003C3465700020207070BD2DE9F041044672
:102BB0000D46002C03D094F83D0018B108E0012028
:102BC000BDE8F081002084F83C00204600F046F883
:102BD000022084F83D002068816844F20702914396
:102BE0008160211D206802F00BFA273454F8270C6D
:102BF00082688169066A2B68134340F2033291436D
:102C0000AF69AA6841EA07210A4340F60C418A43AA
:102C10004FF2F0018A43EF69E96842EA0722114363
:102C20002A692F6A120142EA07320A4326F0220675
:102C300069686D6946EA05152943836054F8270CD5
:102C4000826154F8270C01620120E077E07520765C
:102C5000E0762077A0750020B2E7000000B585B0CF
:102C60000021019102910391049100680E4988426C
:102C700018D10E48C16941F00401C161C16901F078
:102C800004010091816941F008018161806900F0CF
:102C900008000090C02001900120039001A9044881
:102CA000FEF724FF05B000BD000800400010024000
:102CB000000C014070B5044614F83E0F6278237989
:102CC00065793E3C0226002904D004290DD0012854
:102CD0001CD115E0012801D1012B01D0012070BDCC
:102CE00084F83E6084F8426018E0012A01D1012D89
:102CF00001D0012070BD84F83F6084F843600DE08E
:102D0000012A03D1012B01D1012D01D0012070BD79
:102D100004F83E6F6670267166713E3C91B10429DD
:102D200016D001220021206802F0B2F9012204210C
:102D3000206802F0ADF92068016841F001010160EE
:102D4000002070BD01220021206802F0A1F9F2E705
:102D500001220421206802F09BF9ECE7704770B56E
:102D60000446206801694FF00005C943890716D45D
:102D7000C168C943890712D4E91E01610120207787
:102D800020688069800703D02046FFF7E7FF05E051
:102D9000204600F027F9204600F0EDF9257720685D
:102DA0000169C943490718D4C168C943490714D404
:102DB0006FF004010161022020772068806910F41F
:102DC000407F03D02046FFF7C9FF05E0204600F012
:102DD00009F9204600F0CFF9257720680169C94339
:102DE000090717D4C168C943090713D46FF0080154
:102DF0000161042020772068C069800703D0204645
:102E0000FFF7ACFF05E0204600F0ECF8204600F0AC
:102E1000B2F9257720680169C943C90618D4C16889
:102E2000C943C90614D46FF010010161082020774E
:102E30002068C06910F4407F03D02046FFF78EFF62
:102E400005E0204600F0CEF8204600F094F9257702
:102E500020680169C943C90708D1C168C943C907C6
:102E600004D1891E0161204600F028FA206801691A
:102E7000C943090609D4C168C943090605D46FF0DE
:102E8000800101612046FFF746FD20680169C943C2
:102E9000490609D4C168C943490605D46FF0400109
:102EA0000161204600F014FA20680169C9438906CF
:102EB0000BD4C168C943890607D46FF020010161B2
:102EC0002046BDE87040FFF727BD70BD30B585B026
:102ED000002101910291039104910168284B022283
:102EE0002848294CB1F1804F1DD0284DA94233D13B
:102EF000986940F010009861986900F01000009007
:102F00004FF4707001900292049201A92048FEF7DC
:102F1000EDFD606820F4406040F0E06040F4406007
:102F2000606005B030BD996941F00401996199690B
:102F300001F0040100914FF40041019102920492CA
:102F400001A9FEF7D3FD606820F4407040F0E06016
:102F500040F480706060E4E70E4CA142E1D19969D1
:102F600041F004019961996901F00401009108217F
:102F700001910292049201A9FEF7B8FDD1E7000089
:102F80000010024000080140000001400004004021
:102F900000100140000C004010B5044694F83C00BD
:102FA00001280AD0012084F83C0042B1042A0AD04A
:102FB000082A0CD00C2A11D10DE0022010BD206887
:102FC00002F086F80AE0206802F0B6F806E0206811
:102FD00002F0ECF802E0206802F020F9002084F80A
:102FE0003C0010BD704710B50446002C03D094F887
:102FF0003D0010B107E0012010BD002084F83C0026
:10300000204600F015F8022084F83D00211D2068BC
:1030100001F0F6FF01203D3460726070A070E07036
:1030200020716071A071E07120722070002010BDCD
:1030300008B500680649884208D10648C16941F0D0
:103040000801C161C06900F00800009008BD0000DF
:10305000000C00400010024070B504460D4694F884
:103060003C0001280AD0012084F83C0042B1042A27
:103070001AD0082A2DD00C2A53D13EE0022070BD70
:103080002946206802F024F82068816941F008018F
:1030900081612068816921F0040181612068816972
:1030A0002A69114381613CE02946206802F044F816
:1030B0002068816941F4006181612068816921F49F
:1030C00080618161206881692A6941EA0221816108
:1030D00027E02946206802F069F82068C16941F0BC
:1030E0000801C1612068C16921F00401C161206843
:1030F000C1692A691143C16113E02946206802F0C1
:103100008DF82068C16941F40061C1612068C1691E
:1031100021F48061C1612068C1692A6941EA022104
:10312000C161002084F83C0070BD10B50446002C3D
:1031300003D094F83D0010B107E0012010BD00203D
:1031400084F83C00204600F015F8022084F83D0089
:10315000211D206801F054FF01203D346072607031
:10316000A070E07020716071A071E0712072207019
:10317000002010BD7047704710B50446002909D0E3
:1031800004290AD008290BD094F8410001280AD05C
:10319000012010BD94F83E00F8E794F83F00F5E7F1
:1031A00094F84000F2E7022079B3042931D00829CD
:1031B00032D084F841000122206801F069FF1B4AE7
:1031C00020681B49904201D0884203D1436C43F4EC
:1031D00000434364206890420DD088420BD0B0F188
:1031E000804F08D01349884205D01349884202D045
:1031F0001249884213D1816801F00701062912D0D3
:10320000016841F0010101600DE0FFE784F83E0034
:10321000D1E784F83F00CEE784F84000CBE70168AF
:1032200041F001010160002010BD0000002C0140B0
:10323000003401400004004000080040000C004041
:1032400030B504460D4600222946206801F020FFD3
:10325000184A41F2111120688B10904202D0164A90
:10326000904209D1026A0A4206D1026A1A4203D187
:10327000426C22F4004242642068026A0A4206D18B
:10328000016A194203D1016821F0010101600120A6
:103290003DB1042D08D0082D09D084F8410000204C
:1032A00030BD84F83E00FAE784F83F00F7E784F881
:1032B0004000F4E7002C014000340140006803495D
:1032C000884201D1FEF730BD70470000002C01405C
:1032D000704710B5044620684169C1F3C01194F8E5
:1032E0003920212A0BD151B1416921F0800141617E
:1032F000206B08B1FEF773F8204602F047F820680B
:103300004169C1F3801194F83A20222A0BD151B1BE
:10331000416921F040014161606B08B1FEF75FF83F
:10332000204602F018F8002010BD704770B5044622
:1033300022681068D168526900F00F03002B08D191
:10334000850606D58D0604D52046BDE8704002F0FE
:1033500026B8002B60D002F0010301F490751D43E4
:103360005AD0C50705D0CD0503D5E56B45F001055D
:10337000E563450705D5D50703D0E56B45F00205A4
:10338000E563850705D5D20703D0E26B42F004025E
:10339000E263020707D501F020021A4303D0E26B73
:1033A00042F00802E263E26B002A2AD0800604D5CC
:1033B000880602D5204601F0F2FF20684069C0F37C
:1033C0008010E16B090700D400B3204601F0C3FF71
:1033D00020684169490615D5416921F040014161E4
:1033E000606B58B115494163606BFEF71BF800280C
:1033F00007D0606B416BBDE8704008472046FFF77F
:1034000094FF70BD2046FFF790FF70BD2046FFF788
:103410008CFF0020E06370BD020606D50A0604D5C5
:103420002046BDE8704002F0ABB84006F3D5480630
:10343000F1D52046BDE8704001F09BBFB7520008AF
:1034400070B50446002C04D094F83900002510B162
:1034500006E0012070BD84F83850204600F022F8C4
:10346000242084F839002068C16821F40051C1602B
:10347000204602F029F82068016921F49041016199
:103480002068416921F02A0141612068C16841F446
:103490000051C160E563202084F8390084F83A00C7
:1034A000002070BDF0B585B0044600250195029559
:1034B000039504952D492068884254D12C48816990
:1034C00041F480418161816901F480410091816909
:1034D00041F004018161806900F0040000904FF424
:1034E000007001900220029003200490214E01A957
:1034F0003046FEF7FBFA301501900295039501A9BD
:103500003046FEF7F3FA1D4E1B4830607560B5601B
:103510008027F76035617561B561F5613046FEF76A
:1035200079F908B1FDF7BBFB666374621248134E6C
:1035300014384436306010207060B560F760356133
:103540007561B561F5613046FEF764F908B1FDF7C4
:10355000A6FB26637462002205212520FEF76AFC83
:103560002520FEF759FC05B0F0BD000000380140F1
:10357000001002400008014058000240F8020020FC
:1035800037B582B00446134694F83A00202802D09A
:10359000022005B030BD039AA2B39BB394F8380063
:1035A000012832D0012084F83800A262A3850025CA
:1035B000E563222084F83A00616B15488862616BEC
:1035C0001448C862616B14480863606B45632168E6
:1035D000606B091DFEF75EF9206801684168019182
:1035E00084F83850C16841F48071C1602068416935
:1035F00041F0010141612068416941F040014161B0
:103600000020C6E7FFE70120C3E70220C1E7000072
:10361000115300084D530008C75200087047704707
:103620002DE9F84304460E4615461F4694F8390026
:10363000202802D00220BDE8F883C6B1BDB194F8BD
:103640003800012815D0012084F838004FF0000917
:10365000C4F83C90212084F83900FEF75FFB8046D7
:10366000A584E584A068B0F5805F04D005E0012062
:10367000E1E70220DFE7206920B13546002684F823
:10368000389013E00025FAE74346002280212046C7
:10369000009701F0A4FF08B10320CCE79DB1216899
:1036A00015F8010B4860E08C401EE084E08C002897
:1036B000EAD14346002240212046009701F08FFFC7
:1036C00040B10320B7E736F8020B2168C0F30800C9
:1036D0004860E8E7202084F839000020ABE7704715
:1036E00070B5304C012220212046FEF710FB01224C
:1036F00010212046FEF70BFB012204212046FEF795
:1037000006FB0022A1152848FEF701FB2748416867
:1037100041F004014160264C264D22462B460020F4
:1037200001F04AFB22462B46102001F045FB2248BF
:10373000FDF72AFBB42221491F48FDF719FD3C2162
:103740001F48FFF7B7FA1F496420086000211E4890
:10375000FFF712FD04211C48FFF70EFD08211A484F
:10376000FFF70AFD0C211848FFF706FD17486421F2
:1037700002680720904700F054F8E82001F0C0FAF2
:1037800013490868C26842F01002C2600868C16844
:1037900041F04001C160BDE87040FF220D490C4876
:1037A000FFF7EEBE0010014000080140003001406C
:1037B0009A9999999999E93F700000200004002096
:1037C000E001002034040040980100202C0000207B
:1037D000B8020020AD080020FEE710B50446012124
:1037E000204600F06AF8204600F02FF8010401D5C9
:1037F000401EC04310BD10B504460221204600F013
:103800005CF82046BDE8104000F01FB810B5044633
:103810000321204600F051F8204600F016F880B24F
:1038200010BD10B501F07CF80A20FEF76DF844F2E7
:1038300027720021802000F022F80521BDE8104009
:103840004FF40062802000F01AB870B5044601F011
:103850000BF9641CE0B201F0D1F801F04BF9012042
:1038600001F098F84FF6FF7101EA0025002001F001
:1038700091F840EA050401F01DF9204670BD70B5CD
:1038800006460D46144601F0EFF8304601F0B6F852
:1038900001F030F9284601F0B1F801F02BF9200AC7
:1038A00001F0ACF801F026F9E0B201F0A7F801F060
:1038B00021F9BDE8704001F0FDB870B505460C4631
:1038C00001F0D2F8284601F099F801F013F92046EA
:1038D00001F094F801F00EF9BDE8704001F0EAB88B
:1038E0002DE9FE43794C40F25F402080DC2340F21A
:1038F0003F152A461946002000F046F914232A46AF
:103900001946002000F040F9AA22DC2314211046B9
:1039100000F03AF95A232A461946AA2000F034F951
:10392000C5225A231421104600F02EF99B232A4663
:103930001946AA2000F028F940F2FF7222800125E2
:1039400063A0CDE90005634E002108463388FDF7EA
:10395000A7F961A0CDE90005338822880021102055
:10396000FDF79EF95DA0CDE900053388228800218E
:103970006420FDF795F95AA0CDE900053388228827
:1039800000217420FDF78CF956A0CDE9000533889D
:103990002288E0210020FDF783F953A0CDE900053E
:1039A00033882288E0211020FDF77AF94FA0CDE975
:1039B000000533882288E0217820FDF771F94CA0BA
:1039C000CDE9000533882288E0218820FDF768F9D9
:1039D00048A0CDE90005338822881E21B120FDF7DB
:1039E0005FF945A0CDE90005338822884121B12047
:1039F000FDF756F94FF49C68A4F800800323424673
:103A000050214320009503F029F94027CDE90175A5
:103A10003A200090338822881E21852000F022FA67
:103A20004FF6E079A4F8009003234A468C21232026
:103A3000009503F013F9CDE901753B200090338820
:103A400022885A21852000F00DFA48F60F022280C4
:103A50000323C8214320009503F000F9CDE9017547
:103A60003C200090338822889621852000F0FAF9C6
:103A700000242025CDE9015456204FF4987700907A
:103A8000234642461621384600F0ECF92E26CDE9B1
:103A90000065002342461621E800029400F0E2F996
:103AA000CDE901544120009000234A463721384691
:103AB00000F0D8F9CDE9006500234A463721F0200F
:103AC000029400F0CFF9BDE8FE8300002200002040
:103AD000CAE4000024000020C8EB0000CAB10000C6
:103AE000BCE40000D4CB0000D0D00000B7C500007B
:103AF000B5E70000D4A40000C9E800002DE9F843B0
:103B00000446DFF874800021B8F80200401E83B23A
:103B1000B8F80000401E82B2084600F063F917486A
:103B20004FF40049C0F80090154980140861002541
:103B3000260AE7B215E000240EE000960A230122CF
:103B400069461048FEF722FE00970A2301226946C3
:103B50000C48FEF71BFE641CB8F80000A042ECD82D
:103B60006D1CB8F80200A842E5D80448001FC0F850
:103B70000090BDE8F883000098070020140C014075
:103B800000100140F80000202DE9FE4F002500261E
:103B9000171AA3EB010881468A46681E002F03DD31
:103BA0004FF00101019107E003D14FF000010191B5
:103BB00002E00190C7F10007B8F1000F03DD4FF0FC
:103BC0000100009007E003D14FF00000009002E0F8
:103BD0000090C8F10008474501DD3C4600E044463E
:103BE0004FF0000B601C029013E01FFA8AF11FFADD
:103BF00089F000F013F83D444644A54202DD2D1B38
:103C000001988144A64202DD361B009882440BF1E4
:103C1000010B02988345E8DDBDE8FE8F10B500F08A
:103C2000DDF803480088BDE8104000F071BB0000DB
:103C30002200002010B500F0B9F8112000F0D0FAF1
:103C4000C820FDF761FEB22000F0CAFA0C2000F097
:103C5000ADFA0C2000F0AAFA002000F0A7FA3320F9
:103C600000F0A4FA332000F0A1FAB72000F0B8FA6F
:103C7000562000F09BFABB2000F0B2FA182000F0AA
:103C800095FAC02000F0ACFA2C2000F08FFAC22088
:103C900000F0A6FA012000F089FAC32000F0A0FA93
:103CA0001F2000F083FAC42000F09AFA202000F0D0
:103CB0007DFAC62000F094FA0F2000F077FAD020A9
:103CC00000F08EFAA62000F071FAA12000F06EFA42
:103CD000E02000F085FAD02000F068FA0D2000F016
:103CE00065FA142000F062FA0B2000F05FFA0B2056
:103CF00000F05CFA072000F059FA3A2000F056FA7A
:103D0000442000F053FA502000F050FA082000F050
:103D10004DFA132000F04AFA132000F047FA2D2044
:103D200000F044FA322000F041FAE12000F058FAA5
:103D3000D02000F03BFA0D2000F038FA142000F0FB
:103D400035FA0B2000F032FA0B2000F02FFA072092
:103D500000F02CFA3A2000F029FA442000F026FA6C
:103D6000502000F023FA082000F020FA132000F081
:103D70001DFA132000F01AFA2D2000F017FA322055
:103D800000F014FA3A2000F02BFA552000F00EFA59
:103D9000212000F025FA032000F04CFA0020FFF764
:103DA000ADFEBDE81040292000F01ABA10B509494F
:103DB0004FF4004008600848042404606420FDF7C4
:103DC000A3FD0548001F0460BDE810406420FDF716
:103DD0009BBD0000100C0140141401400B4602462C
:103DE000AFF300802DE9F04105460E461746984690
:103DF0001B4CA07A00F0F4F9A07B2844C0F3072004
:103E000000F0D4F9A07B2844C0B200F0CFF9A07B29
:103E10003844C0F3072000F0C9F9A07B3844C0B291
:103E200000F0C4F9207B00F0DBF9E07B3044C0F304
:103E3000072000F0BBF9E07B3044C0B200F0B6F9D7
:103E4000E07B4044C0F3072000F0B0F9E07B404441
:103E5000C0B200F0ABF9BDE8F04100F0DBB9000002
:103E6000980700202DE9FC5F0F460546DDE90D614E
:103E70000C9890469946203800F0FF0ADFF8A8B267
:103E8000002906D01FFA88F8202E71D24FF0000BBF
:103E90009CE0B819401E83B205EB5600401E82B26A
:103EA000B9B2A8B2FFF79EFF402E03D0202E1FD03C
:103EB00000255AE0AAF1100A0AF0FF0000269B49EB
:103EC00001EB0027BD5D0024E80704D01FFA88F04D
:103ED00000F01EFA03E01FFA89F000F019FA6D08ED
:103EE000641CE4B2082CEFD3761CFF2EEADD10E14F
:103EF00000260BEB8A17BD5D0024E80704D01FFAEB
:103F000088F000F005FA03E01FFA89F000F000FAEB
:103F10006D08641CE4B2082CEFD3761C402EEADB5B
:103F2000F7E00C2E02D0102E07D00AE080480AEBF2
:103F30004A0100EB8100445D03E07E4800EB0A107B
:103F4000445D00270DE0E00704D01FFA88F000F080
:103F5000DFF903E01FFA89F000F0DAF964087F1C4A
:103F6000FFB2B7EB560FEED36D1CB542D9DBD0E0F4
:103F70002FE00C2E02D0102E08D00CE06C480AEB7B
:103F80004A0100EB810010F80B4004E0694800EBA7
:103F90000A1010F80B404FF0000907EB0B000190DE
:103FA0006548A0F80080E00706D0019881B205EBD3
:103FB000090080B2FFF732FE640809F1010909F037
:103FC000FF09B9F1080FEBD30BF1010BB345D0DBBF
:103FD0009FE0402E02D0202E66D09AE0AAF1100A6F
:103FE0000AF0FF0000245149DFF850A101EB002046
:103FF000DFF844B10090009810F804900026ABF868
:1040000000805FEAC97001D0A00715D05FEAC970CF
:1040100003D004EA0A00012819D05FEAC97003D06E
:1040200004EA0A0002281ED05FEAC97032D004EA0E
:104030000A00032823D02DE0E01704EB907007EB73
:10404000A00081B2A81980B2FFF7E8FD22E0E017D6
:1040500004EB907007EBA00081B2A819083080B281
:10406000FFF7DCFD16E0E01704EB907007EBA00013
:1040700081B2A819103080B2FFF7D0FD0AE0E01736
:1040800004EB907007EBA00081B2A819183080B241
:10409000FFF7C4FD4FEA5909761CF6B2082EAED3DD
:1040A000641CFF2CA7DB34E000240BEB8A1BDFF839
:1040B00088A01BF804900026AAF800805FEAC97067
:1040C00001D0E00708D05FEAC97019D01B48801EF4
:1040D000204001280AD013E004EBD47007EB600005
:1040E00081B2A81980B2FFF799FD09E004EBD47002
:1040F00007EB600081B2A819083080B2FFF78EFD8F
:104100004FEA5909761CF6B2082ED5D3641C402C10
:10411000CFDB0B4800214388028802B00846BDE887
:10412000F05FFFF75FBE0000687900082891000883
:10413000046F00087873000822000020030000804C
:10414000980700202DE9FE4F0446DDF830800F4629
:1041500016461D46DFF84890DFF848A0DFF848B063
:1041600016E0B9F80010491EA14216DBB9F802109A
:10417000491EB94211DB8DE84101BAF80030BBF8A5
:10418000002039462046FFF76DFE04EB56046D1CF7
:104190002878A0F120015E29E3D9BDE8FE8F000058
:1041A00098070020240000202200002031B5094893
:1041B0004FF4004404600849801408614FF0FF3355
:1041C000012269460548FEF7E1FA0248001F046033
:1041D00038BD0000140C014000100140F800002020
:1041E00031B509484FF4004404600849801448611F
:1041F0004FF0FF33012269460548FEF7C7FA02482F
:10420000001F046038BD0000140C01400010014084
:10421000F80000200148007AFFF7E2BF980700206D
:1042200010B50C46FFF7DCFFE0B2BDE81040FFF729
:10423000BDBF000030B41C492A224A812B228A814A
:104240002C220A810022F0244FF4A07300280ED003
:10425000012815D002281CD0032823D10B804C80C4
:104260008A73CA73A02130BC3620FFF7D9BF0C80F7
:104270004B808A73CA73002130BC3620FFF7D0BF51
:104280000B804C808A73CA73602130BC3620FFF7E4
:10429000C7BF0C804B808A73CA73C02130BC3620E4
:1042A000FFF7BEBF30BC70479807002070B5642987
:1042B00000D96421154A0025131D141F072821D297
:1042C000DFE800F004080C1014181C0011601D60D9
:1042D000256070BD15601960256070BD15601D609A
:1042E000216070BD11601D60216070BD116019609A
:1042F000256070BD15601960216070BD1160196086
:10430000216070BD15601D60256070BD3C040040DB
:1043100038B504460C484FF4004505600B4980143D
:104320000861200A00900A23012269460848FEF726
:104330002DFA00940A23012269460548FEF726FA61
:104340000148001F056038BD140C014000100140F9
:10435000F80000203EB50024009401940294104817
:104360000E4901608460047304754FF46021C161DB
:10437000446001250561FCF701FE08B1FCF78FFCE4
:104380000D2000900195029469460548FCF76EFDEA
:10439000002801D0FCF783FC3EBD00000024014052
:1043A000700000201CB50024009401940F490E48B1
:1043B00008600846FCF793FF08B1FCF770FC009416
:1043C0000194002269460948FCF762FF08B1FCF736
:1043D00066FC102269460548FCF75AFF002801D008
:1043E000FCF75DFC1CBD000000740040E4000020F0
:1043F00008B51148416941F001014161406900F08F
:1044000001000090002205210B20FDF713FD0B2079
:10441000FDF702FD002205210E20FDF70BFD0E2009
:10442000FDF7FAFC002205210F20FDF703FDBDE892
:1044300008400F20FDF7F0BC001002402DE9F04FBE
:1044400085B000240194029403940494584881692F
:1044500041F010018161816901F0100100918169D1
:1044600041F004018161816901F0040100918169D9
:1044700041F008018161816901F0080100918169C1
:1044800041F020018161806900F020000090DFF898
:1044900024A141F23408002241465046FDF737FC82
:1044A000DFF814B14FF4A079002249465846FDF7D1
:1044B0002EFC002248F604414048FDF728FC00226B
:1044C00004213F48FDF723FC4FF4C04001903D4FCD
:1044D00002970125039501A95046FDF707FBE80364
:1044E000019039480290039401A95046FDF7FEFA65
:1044F000022601960294039401A95046FDF7F6FAAC
:10450000CDF8048002950394049601A95046FDF766
:10451000EDFA4FF0040ACDF804A04FF00308CDF8EF
:10452000088001A95846FDF7E1FACDF804900295FC
:104530000394049601A95846FDF7D8FA48F20400FE
:10454000019002950394049601A91C48FDF7CEFA48
:104550004FF44060019002950395CDF8108001A9B9
:104560001648FDF7C3FACDF804A00295039404960B
:1045700001A91348FDF7BAFA4FF440700190029771
:10458000039501A90D48FDF7B1FA00220521172076
:10459000FDF750FC1720FDF73FFC002205212820E5
:1045A000FDF748FC2820FDF737FC05B0BDE8F08F8B
:1045B000001002400010014000080140000C0140C2
:1045C00000140140000021100000111010B5104827
:1045D0000E4901604FF4827141604FF400418160E7
:1045E0000021C160016141614FF400728261C161CB
:1045F0000162416281620A21C162FEF735F800283A
:1046000003D0BDE81040FCF74ABB10BD00300140AC
:10461000F800002010B58EB000240A940B940C947E
:104620000D94089409941C2101A8FBF702FE1E4872
:104630004FF080410160DC21416084606421C160F1
:1046400004618461FEF7A8F908B1FCF728FB4FF478
:1046500080500A900AA91448FEF736FA08B1FCF710
:104660001EFB1148FEF761FD08B1FCF718FB08942A
:10467000099408A90C48FEF751F908B1FCF70FFBA3
:10468000602001903220029003940594002201A939
:104690000548FEF7E1FC08B1FCF701FB0248FEF714
:1046A00015FC0EB010BD00005001002010B58EB0FA
:1046B00000240A940B940C940D94089409941C21E2
:1046C00001A8FBF7B6FD2B4829490160472141604D
:1046D00084606421C160046180218161FEF75CF91E
:1046E00008B1FCF7DCFA4FF480500A900AA921487F
:1046F000FEF7EAF908B1FCF7D2FA1E48FEF715FDFD
:1047000008B1FCF7CCFA0894099408A91948FEF7F7
:1047100005F908B1FCF7C3FA6020019002940394F4
:104720000594002201A91348FEF796FC08B1FCF796
:10473000B6FA02200390042201A90E48FEF78CFC71
:1047400008B1FCF7ACFA082201A90A48FEF784FC7C
:1047500008B1FCF7A4FA0C2201A90648FEF77CFC7C
:1047600008B1FCF79CFA0348FEF7B0FB0EB010BD91
:10477000000400409801002010B58CB0242103A84B
:10478000FBF757FD00240194029416481449016078
:104790000321416084604FF6FF72C260046184614E
:1047A0000391022004900122059206940F210791A3
:1047B000089009920A940B9103A90A48FEF7F5F9AB
:1047C00008B1FCF76CFA0194029401A90548FEF7C0
:1047D000A5F8002801D0FCF762FA0CB010BD00006B
:1047E00000080040E001002010B58AB000240894C1
:1047F00009941C2101A8FBF71CFD15481349016011
:10480000446084604FF6FF71C16004618461FEF70B
:10481000EAFB08B1FCF743FA0894099408A90C488C
:10482000FEF77CF808B1FCF73AFA0194029403947D
:1048300005940C2201A90648FEF7AEFB08B1FCF76F
:104840002EFA0348FEF742FB0AB010BD000C0040F0
:10485000280200201CB50024009401940E480D4944
:10486000016040F60F61416084600A21C1608021CF
:104870008161FEF791F808B1FCF711FA00940194F8
:1048800069460548FEF74AF8002801D0FCF707FA08
:104890001CBD0000001000407002002010B50C4844
:1048A0000A4901604FF4E131416000218160C1603B
:1048B00001610C2242618161C161FEF7C1FD0028E6
:1048C00003D0BDE81040FCF7EAB910BD0038014044
:1048D000B802002070B5114D4FF40064002221464B
:1048E0002846FDF714FA052002F09AF901229602F3
:1048F00031462846FDF70BFA052002F091F9002217
:1049000031462846FDF703FA052002F089F92146D1
:104910002846BDE870400122FDF7F9B9000C0140BE
:1049200010B5084C0122D1022046FDF7F0F9012212
:1049300091022046FDF7EBF9BDE81040052002F09A
:104940006FB90000000C014070B50122104DD40277
:1049500021462846FDF7DBF9052002F061F9012226
:10496000960231462846FDF7D2F9052002F058F9A3
:10497000002231462846FDF7CAF9052002F050F919
:1049800021462846BDE870400022FDF7C0B900006E
:10499000000C01402DE9F047814600240025164F08
:1049A000DFF854804FF48066083F012231463846D4
:1049B000FDF7ADF9052002F038F96006040ED8F8CD
:1049C0000000000501D544F00104002231463846BC
:1049D000FDF79DF9052002F028F96D1CEDB2082DB8
:1049E000E3D3B9F1000F04D0FFF774FF2046BDE810
:1049F000F087FFF7A9FFF9E7080C01402DE9F04126
:104A00000546184F4FF48066002231463846FDF7C0
:104A10007EF900244FF40068280605D5012241469E
:104A20003846FDF774F904E0002241463846FDF7A8
:104A30006EF96806050E012231463846FDF767F922
:104A4000052002F0EDF8002231463846FDF75FF907
:104A5000052002F0E5F8641CE4B2082CDCD3BDE8C4
:104A6000F0810000000C014070B50122104DD4020D
:104A700021462846FDF74BF9012296023146284689
:104A8000FDF745F9052002F0CBF800222146284623
:104A9000FDF73DF9052002F0C3F800223146284613
:104AA000FDF735F9BDE87040052002F0B9B8000007
:104AB000000C014070B50E4D4FF4006400222146F9
:104AC0002846FDF724F9052002F0AAF801229102F8
:104AD0002846FDF71CF9052002F0A2F80122214624
:104AE0002846FDF714F9BDE87040052002F098B89B
:104AF000000C01402DE9F04100240122144DD602A2
:104B000031462846FDF703F9052002F089F8012215
:104B1000970239462846FDF7FAF8052002F080F89A
:104B200008E0641CE4B2FA2C04D9FFF7C3FF0120AB
:104B3000BDE8F08131462846FDF7E2F80028F0D1C3
:104B4000002239462846FDF7E2F80020F0E7000091
:104B5000000C0140FEE7704708B507494FF4FA52D0
:104B60000968B1FBF2F14143009100BF0098411E7A
:104B70000091FAD208BD000010000020F8B51F4DCA
:104B80000020287000241E480078801F192834D285
:104B900005F205163078B0282FD17078E0282CD196
:104BA00018A001F06DFB3079B11D415C0D2924D1B5
:104BB000F11D415C0A2920D101212970B178697069
:104BC000F178A970E87005E0301929194079087169
:104BD000641CE4B2E878A042F6D83019807985F8F0
:104BE00004010CA001F04CFB0448001D0090EB7880
:104BF000AA7869780AA001F043FBF8BDA807002055
:104C000028000020486561646572204F4B20720ABD
:104C1000000000005461696C204F4B200D0A000019
:104C200046554E3D2558200D0A20434D44313D2523
:104C300058200D0A20434D445F4C454E3D257820B9
:104C40000D0A20444154413D2573200D0A00000007
:104C500070477047704770477047000010B51348A1
:104C6000B0210170E0214170A0F5017251787039D6
:104C700081700021C170022101710D4909880B0A60
:104C80004371817192F80411C1710D2101720A21E1
:104C9000417201464FF400730A220648FEF7C0FC39
:104CA000BDE8104004A001F0EBBA0000AC09002000
:104CB000C8030020B80200205245475F565F4655A2
:104CC0004E204F4B7C720A0070B505460D212846D8
:104CD00000F05EF8284600F030F8084C20700E21F5
:104CE000284600F055F8284600F027F86070217833
:104CF000012202EB8101084470BD00002600002063
:104D000010B5044611220021204600F028F80422A4
:104D10000921204600F023F801220A21204600F054
:104D20001EF801220B21204600F019F8204622220D
:104D3000BDE810400C2100F012B810B50446FFF792
:104D400093FE641CE0B2FFF759FEFFF7D3FE00208C
:104D5000FFF720FE0446FFF7ADFE204610BD70B5FC
:104D600006460D461446FFF77FFE3046FFF746FE27
:104D7000FFF7C0FE2846FFF741FEFFF7BBFE2046C7
:104D8000FFF73CFEFFF7B6FEBDE87040FFF792BEAE
:104D900070B505460C46FFF767FE2846FFF72EFE66
:104DA000FFF7A8FE2046FFF729FEFFF7A3FEBDE8A8
:104DB0007040FFF77FBE000010B50446214606484C
:104DC00001F02EFA08B1FBF76AFF2146BDE810405A
:104DD0000148FCF7D5BA0000E400002010B5FEF74A
:104DE00029FFFEF77DFD104900200880488088805B
:104DF0000E4A907021238B7390710D48FDF728FEA9
:104E000040F6B834462201212046FBF7ADFE46228B
:104E1000012141F28830FBF7A7FE20464622BDE87B
:104E200010400121FBF7A0BEC80300201A0000209B
:104E30007002002038B504460B4600920022802103
:104E4000204600F009F828B1606D40F02000606550
:104E5000032038BD002038BD2DE9F84304460F4635
:104E600091461E46089DFCF759FF401B351AFCF77A
:104E700055FF804626480068C0F3CB306843009059
:104E80003AE0701C38D0FCF749FFA0EB0800A842BC
:104E900003D215B1009858B32BE02068416821F087
:104EA000E00141606068B0F5827F0BD1A068B0F589
:104EB000004F02D0B0F5806F04D12068016821F066
:104EC00040010160A06AB0F5005F09D12068016867
:104ED00021F4005101602068016841F40051016033
:104EE000012050346070002020700320BDE8F8835A
:104EF00000250098401E00902068806837EA000076
:104F000004D000204845BCD10020EFE70120F9E79C
:104F10001000002010B5502080F31188BFF34F8F90
:104F2000BFF36F8F01F07CFF18B104494FF0805040
:104F30000860002080F3118810BD000004ED00E03F
:104F400030B595B028210BA8FBF773F9142106A8FA
:104F5000FBF76FF918216846FBF76BF902240B94F5
:104F600001200F90102010901294002513954FF4FB
:104F7000601014900BA8FDF7B5F908B1FBF78FFE90
:104F80000F200690079408954FF4806009900A95C9
:104F9000022106A8FDF77EF808B1FBF780FE009419
:104FA0004FF4404002906846FCF7EEFF002801D025
:104FB000FBF775FE15B030BD704700000148FDF7E6
:104FC000CEBE0000800300200148FDF7C8BE0000EF
:104FD0007002002070B5094D0024E878002800D048
:104FE000EC70287900B12C71687900B16C71E879A6
:104FF000002802D0FEF774FCEC7170BD1A0000208E
:105000002DE9F04102681D4D1D4E1E4FDFF878C09E
:105010001E4B4FF08048A84209D0984207D0404527
:1050200005D0B04203D0B84201D0604503D122F090
:1050300070044A682243A84209D0984207D04045EC
:1050400005D0B04203D0B84201D0604503D122F46C
:105050004074CA6822434C6922F0800222430260F5
:105060008A68C2620A688262A84201D0984201D16D
:105070000969016301214161BDE8F081002C014013
:105080000004004000080040000C004000340140D3
:1050900010B501F01F0101238B40046A9C43046298
:1050A000036A8A401343036210BD10B5846824F478
:1050B0007F4442EA03220A432243826010BD826891
:1050C00022F070020A4342F007018160704700003D
:1050D000F0B5026A22F001020262026A4368846942
:1050E00024F0700424F003050C682C4322F0020520
:1050F0008A682A430E4E0F4FB04201D0B84205D104
:1051000022F00805CA682A4322F00402B04201D006
:10511000B84207D123F4807323F400734D691D4313
:105120008B692B4343608461496841630262F0BD2F
:10513000002C014000340140F0B5026A22F0100258
:105140000262036A4268846924F4E04424F44074EF
:105150000D6844EA052423F020038D6843EA051313
:10516000104D114EA84201D0B04206D123F0800369
:10517000CF6843EA071323F04003A84201D0B042AE
:1051800009D122F4806222F400624D6942EA85026C
:105190008D6942EA850242608461496881630362E5
:1051A000F0BD0000002C014000340140F0B5026A5F
:1051B00022F480720262026A4368C46924F07004B7
:1051C00024F003050C682C4322F400728D6842EA37
:1051D0000522104D104EA84201D0B04206D122F453
:1051E0000062CF6842EA072222F48062A84201D01E
:1051F000B04209D123F4805323F400534D6943EAAC
:1052000005138D6943EA05134360C4614968C163AE
:105210000262F0BD002C01400034014030B5026A4A
:1052200022F480520262046A4268C36923F4E043B4
:1052300023F440730D6843EA052324F400548D6879
:1052400044EA0534084DA84202D0084DA84204D1D2
:1052500022F480424D6942EA85124260C361496886
:105260000164046230BD0000002C014000340140A4
:1052700010B5036A046A24F001040462846924F00E
:10528000F00444EA021423F00A020A438461026231
:1052900010BD10B5036A23F0100303628469036A2A
:1052A00024F4704444EA023223F0A00343EA0111DB
:1052B0008261016210BD10B5406A0021C185C184C0
:1052C000FEF733F810BD70B5446A20684069C0F33A
:1052D000C01094F839100025212904D118B1E584B3
:1052E000204600F053F820684069C0F3801094F81D
:1052F0003A10222904D118B1E585204600F02BF898
:10530000E06B40F01000E0632046FEF70EF870BD41
:1053100010B50146486A09680968890613D4002156
:10532000C1850168CA6822F48072CA6001684A694E
:1053300022F001024A6101684A6922F040024A6192
:10534000202180F83A10FEF769F910BD10B5406AC7
:10535000FEF765F910BD0168CA6822F49072CA6050
:1053600001684A6922F001024A61202180F83A105E
:10537000704710B50168CA6822F04002CA60202157
:1053800080F83910FEF7ABF9002010BD0168CA683B
:1053900022F0C002CA60202180F83910704710B591
:1053A00090F83A10222901D0022010BD82684FF4F3
:1053B00080539A4201D1016921B1816A9A421DD07C
:1053C00052B10BE0816A02685268C2F308020A8097
:1053D000816A891C816209E002697AB102685268B7
:1053E00002F07F020A70816A491C8162C18D491EE8
:1053F0000904090CC18505D0002010BD026852685F
:105400000A70F0E70168CA6822F02002CA600168E9
:10541000CA6822F48072CA6001684A6922F00102F7
:105420004A61202180F83A10FEF7F8F8002010BDFC
:1054300038B5194800680168C943C9062BD400254E
:105440000168406800901448FDF743FF1348006866
:105450004068134CC0F1FF00C1B2217011A000F0F0
:105460000FFF4FF40073227815490B48FEF7D8F868
:1054700014A000F005FFFFF781FBFBF7A5FB2178E7
:105480000F48FAF7D6FE2570BDE83840FF220C49D8
:105490000148FEF775B838BDB8020020F8020020B8
:1054A0002800002052656365697665204461746157
:1054B000286C656E677468203D202564293A2000B9
:1054C000AD0800200D0A000070B50446206801698F
:1054D000E26821F4405111430161A1682069014350
:1054E000606901432068C26841F20C639A430A4331
:1054F000C26020684169A26921F440711143416191
:105500001E492068884202D1FCF7A2FE01E0FCF7A8
:105510008FFE00EBC00101EB00106168642289007E
:10552000B0FBF1F3B3FBF2F36FF018067343B0FB7B
:10553000F1F5B0FBF1F605EB8305322303EB05151E
:10554000B5FBF2F5B6FBF2F605F0F00505EB061536
:10555000B0FBF1F6B0FBF1F0B0FBF2F06FF0180128
:10556000484306EB800003EB0010B0FBF2F021682B
:1055700000F00F002844886070BD00000038014032
:1055800090F83910212901D0022070478168B1F5C7
:10559000805F01D1016961B1016A4A1C026202683F
:1055A00009785160C18C491E0904090CC1840AD0D4
:1055B00013E0016A02680988C1F308015160016AB9
:1055C000891C0162EEE70168CA6822F08002CA60A5
:1055D0000068C16841F04001C160002070472DE9BA
:1055E000F04104460E4617469846069D1DE0681C8D
:1055F0001BD02DB1FCF792FBA0EB0800A84214D9F8
:105600002068C16821F4D071C1602068416921F02F
:1056100001014161202084F8390084F83A0000201B
:1056200084F838000320BDE8F0812068006836EA7D
:10563000000004D00020B842D9D00020F3E70120B8
:10564000F9E700002DE9F04F89B0142104A8FAF71A
:10565000F0FDFBF725FA8020FEF7CDF8FAF75CFFA6
:10566000FB49FAF7F1FDFAF75CFF80B20A25B0FBBF
:10567000F5F0DFF8E0B3ABF800008020FEF7ADF8FE
:10568000FAF74AFFFAF74DFFABF802008020FEF769
:10569000BDF8ABF80400F0490BF5D073BBF800205F
:1056A000488823F8102003F58C73BBF8022023F8F8
:1056B00010208B2801D9002000E0401C4880E649DA
:1056C000DFF898A3891DDFF89883087840F2FF7906
:1056D00002064FF000044FF064064FF47A7740D58D
:1056E00000F07F000870DF4BC0071ED001221102BE
:1056F0001846FCF70CFB2822012140F6C410FBF7EA
:1057000033FAD9480460001D0460001D0660AAF841
:1057100000904FF47840A8F80000D4A31022E021B4
:10572000FE200094FEF70EFD1BE000224FF4807176
:105730001846FCF7ECFA142202213846FBF714FA5B
:10574000C9480460001D0460001D0460AAF80090B0
:10575000A8F80040C5A31022E021FE200094FEF727
:10576000F1FCAAF80090A8F80040BBF80600FAF790
:10577000D3FEC149FAF79AFDFAF700FF02460B463D
:10578000BEA104A800F08CFD04AB10220021232050
:105790000094FEF7D7FCBBA31022002187200094C1
:1057A000FEF7D0FC9BF8260000909BF825309BF874
:1057B0002420BAA104A800F073FD04AB1022E0215C
:1057C00023200094FEF7BEFCB8A31022E0219B200A
:1057D0000094FEF7B7FC9BF80E00DFF8D892410664
:1057E0004FF0200840F6B83A7ED500F00F000128AF
:1057F00006D0022865D0032877D0042854D171E15F
:10580000BBF80C00CDE90184B0FBF7F03030C0B23A
:10581000009000234FF49C621621E020FEF722FB4B
:10582000BBF80C00CDE90184B0FBF6F0B0FBF5F15C
:1058300005FB11003030009000234FF49C621621CC
:10584000F020FEF70FFBBBF80C00CDE90184B0FBA4
:10585000F5F0B0FBF5F105FB1100303000900023AE
:105860004FF49C6216214FF48870FEF7FBFABBF8E8
:105870000C00CDE90184B0FBF5F105FB11003030DF
:1058800000904FF49C63002216214FF49070FEF7B5
:10589000E9FAD9F80010BBF80C004A6A12B20244C7
:1058A000524502DDABF80CA0D5E14A6A12B2D042F3
:1058B00002D5ABF80C40CEE1496A0844ABF80C00C5
:1058C000C9E1BBF80C00CDE90184B0FBF7F0303042
:1058D000C0B2009000234FF49C621621E020FEF736
:1058E000C1FABBF80C0001E06CE157E0B0FBF6F048
:1058F000B0FBF5F105FB1100CDE9018430300090DB
:1059000000234FF49C621621F020FEF7ABFABBF89F
:105910000C00CDE90184B0FBF5F0B0FBF5F105FB1F
:105920001100303000904FF49C63002216214FF498
:105930008870FEF797FABBF80C00CDE90184B0FB44
:10594000F5F105FB11003030009000234FF49C620C
:1059500016214FF49070FEF785FAD9F80010BBF8C5
:105960000C004A6A12B202EB820200EB420252457C
:1059700002DDABF80CA06EE14A6A12B202EB8202C1
:1059800010EB420202D5ABF80C4064E1496A01EB2E
:10599000810100EB4100ABF80C005CE1BBF80C00AE
:1059A000CDE90184B0FBF7F03030C0B200900023A5
:1059B0004FF49C621621E020FEF754FABBF80C006D
:1059C000CDE90184B0FBF6F0B0FBF5F105FB110069
:1059D000303000904FF49C6300221621F020FEF737
:1059E00041FABBF80C00CDE90184B0FBF5F0B0FB47
:1059F000F5F105FB11003030009000234FF49C625C
:105A000016214FF48870FEF72DFABBF80C00CDE993
:105A10000184B0FBF5F105FB11003030009000234C
:105A20004FF49C6216214FF49070FEF71BFAD9F8E0
:105A30000020BBF80C10506A00B200EBC00303EB6F
:105A4000001001EB8000504536DDABF80CA002E100
:105A50000000A03FC8030020140000202200002006
:105A6000240000200008014038040040204F555415
:105A700050555420000000000000C842252E326618
:105A800056000000323032302D362D32332031387E
:105A90003A32303A303220576564000025303264A3
:105AA0003A253032643A25303264000030303030EC
:105AB0006D414800E0010020506A00B200EBC003D5
:105AC00003EB001011EB800002D5ABF80C40C2E0F4
:105AD000506A00EBC00202EB001001EB8000ABF853
